:100000000C9436000C945E000C945E000C945E0020
:100010000C945E000C945E000C945E000C945E00E8
:100020000C945E000C945E000C945E000C945E00D8
:100030000C945E000C945E000C945E000C945E00C8
:100040000C945A0B0C945E000C94420A0C941C0AFB
:100050000C945E000C945E000C945E000C945E00A8
:100060000C945E000C945E00A20F580F11241FBE6A
:10007000CFEFD8E0DEBFCDBF12E0A0E0B1E0E0E915
:10008000FCE202C005900D92A834B107D9F724E034
:10009000A8E4B2E001C01D92AA34B207E1F710E073
:1000A000C5E3D0E004C02197FE010E943612C4339C
:1000B000D107C9F70E94700D0C943B160C940000F8
:1000C0000F931F93CF93DF93EC011F8288818823C6
:1000D000E1F000E010E0288530E088899989021776
:1000E00013077CF49801220F331FFC01E20FF31F6A
:1000F00080819181009711F00E94D4120F5F1F4FF1
:10010000EACF18860E94D41218828981882329F0A8
:100110008A899B890E94D4121982DF91CF911F9105
:100120000F91089584E391E00C94330D83E491E002
:100130000C94330D8BE491E00C94330DEF92FF920D
:100140000F931F93CF93DF93CDB7DEB72A970FB6E8
:10015000F894DEBF0FBECDBFF82EE92E8B0167E508
:1001600071E086EA93E00E94F30CEF92FF9283E63F
:1001700091E09F938F931F9289E08F93CE01019618
:100180007C019F938F930E947A1366E671E0C7010A
:100190000E946F13B70186EA93E00E94F30C69E6B0
:1001A00071E086EA93E00E94F30C0FB6F894DEBF8C
:1001B0000FBECDBF02301105B1F04CF40115110591
:1001C00079F001301105B1F482E991E011C00330FA
:1001D000110561F00430110569F486ED91E008C065
:1001E00089E791E005C08BEA91E002C08CEB91E0D9
:1001F0000E94330D2A960FB6F894DEBF0FBECDBF16
:10020000DF91CF911F910F91FF90EF900895CF93C1
:10021000DF93EC010E94F10A8823A1F010925302AF
:1002200081E08E831F9284E08F931F921F92DF9351
:10023000CF930E94A40B1E820F900F900F900F90EF
:100240000F900F90DF91CF910895CF93DF93EC0142
:100250000E94F10A811114C081E0809353028E83C1
:100260001F9283E08F931F921F92DF93CF930E9480
:10027000A40B1E820F900F900F900F900F900F9075
:10028000DF91CF91089570E0DC015296ED91FC91E1
:100290005397E60FF71F2081222359F0660F771F2F
:1002A0005096ED91FC915197E60FF71F8081918157
:1002B000089580E090E008958F929F92AF92BF9250
:1002C000CF92DF92EF92FF920F931F93CF93DF9322
:1002D0001F92CDB7DEB76F3F2FEF720709F433C21D
:1002E0008B017C010E944E0B809048029090490245
:1002F000A0904A02B0904B02DC01CB018819990909
:10030000AA09BB09813D9740A105B10548F089289C
:100310008A288B2829F0D70117968C9181110FC25A
:100320000E944E0B609348027093490280934A02E8
:1003300090934B02F7019781911114C00F3F110563
:1003400089F4C7010E94600081E0D70117968C9361
:10035000179751961C921E92509753961C921E927C
:1003600052971FC0F7018485843041F4992309F422
:10037000EAC116861586078785E0C5C0853059F520
:10038000992309F4E0C1D7012785C22ED12C8FEF24
:1003900090E08C199D0908171907B9F5211104C0BF
:1003A00089E01C968C93CFC1C601880F991F0E94CB
:1003B0003C12F701918B808B11E01083C6010E94E3
:1003C0003C12D70153969C938E93529711961C938F
:1003D000119786E0E6CF8630D9F0873009F053C018
:1003E000992309F4B0C1F701258530E00288F3892B
:1003F000E02DE20FF31F6081862F90E04FEF50E079
:10040000481B590B0417150779F0F701178254C1DF
:10041000992309F498C1D70185850288F389E02DD5
:10042000E80FF11D008368C0220F331FD7015096DB
:100430000D911C915197662369F0020F131F0E94C2
:100440003C12F80191838083D7011C968C911C97F4
:100450008F5F12C0F801E20FF31F11821082F701C3
:10046000168685858F5F85879785891303C089E008
:10047000848704C086E0D7011C968C93F7018085A1
:100480008F5F808760C1883009F03FC0992309F4ED
:100490005AC1D701858520899189E22FF92FE80F6C
:1004A000F11DE80FF11D80819181009759F01E9692
:1004B0002C911E9731E0320F1E963C93FC01E20F07
:1004C000F11D0083F70185850288F389E02DE80F8F
:1004D000F11DD7011E962C911E979081291333C1CF
:1004E0001E961C921E978F5F1D968C931D971F96CC
:1004F0009C911F97891305C01C968C911C978F5F48
:1005000050CF86E0F70184871EC1893009F0D8C03A
:10051000992309F418C1048B0111CEC01782809170
:10052000FA0281118CC08385823051F4128283815A
:10053000882309F49EC00588F689E02D80E00CC070
:10054000813061F4F70182838381882309F491C0AB
:100550000588F689E02D81E009958BC0833081F410
:100560001F9281E08F931F921F92FF92EF920E9441
:10057000A40B0F900F900F900F900F900F9079C0D9
:10058000853009F076C060E0C7010E9443014BE06E
:1005900050E0BC0183EE91E00E946213892B09F0C8
:1005A00068C01982D7015296ED91FC915397A180B2
:1005B000B12C00E010E0C12CD12C0A151B056CF405
:1005C00061E0C7010E944301800F911FFC018081FF
:1005D000C80ED11C0F5F1F4FF0CFC98284E090E09E
:1005E0000E943C128C01DC0113961C92139781E04F
:1005F0008C93CE01019612969C938E93119784E072
:1006000090E00E943C12FC01138287E180838FEE10
:1006100091E0928381831F930F93FF93EF9382E086
:100620008F9385E08F931F921F92FF92EF920E940B
:10063000A40B0FB6F894DEBF0FBECDBF1AC020E1E9
:10064000C22E23E0D22E00E010E080916E0390E0F5
:100650000817190774F4D6018D919D916D01DC0185
:10066000ED91FC910190F081E02D09950F5F1F4FF6
:10067000ECCFF70184818823F9F081858823E1F0AC
:10068000C7010E942501D70150960D911C915197E9
:1006900052962D913C9153975796ED91FC91589716
:1006A0001F964C911F971B966C911B9719968C91D6
:1006B0000995C7010E940701C7010E94600043C05D
:1006C000992309F440C0813001F5602FF7010187BB
:1006D000002391F1948191112FC040916E0350E05D
:1006E000E0E1F3E020E030E02417350754F4A19175
:1006F000B19113967C91671301C091E02F5F3F4F3A
:10070000F3CF992309F481CE17C0823089F4028790
:100710002FEF30E0201B310994E0359527959A950D
:10072000E1F70F7010E02017310731F0178204C095
:10073000833011F4F70103878F5FD70132CEC701F1
:100740000E946000EDCD0F90DF91CF911F910F912E
:10075000FF90EF90DF90CF90BF90AF909F908F90E1
:1007600008952F923F924F925F926F927F928F9255
:100770009F92AF92BF92CF92DF92EF92FF920F9330
:100780001F93CF93DF93CDB7DEB76E970FB6F89474
:10079000DEBF0FBECDBF7C012DB73EB73E8F2D8F84
:1007A0000E94740A5C01DC011B96BC91BD8BB150A8
:1007B000BE8BB33040F0ED89E53029F08E2F8750A5
:1007C000853008F045C060E0C5010E944301DC01AE
:1007D0002D903C90BE89B230B0F461E0C5010E941A
:1007E0004301FC010190F081E02DF98FE88F62E078
:1007F000C5010E944301DC014D905D906D907C909D
:10080000812C912C13C0BD89B83049F461E0C50139
:100810000E944301FC018081882E912C02C0812C12
:10082000912C198E188E412C512C3201F7013996DA
:1008300000E010E0C190D190C114D104D1F1D601F3
:1008400013968D919C9114978215930591F538C05C
:10085000ED89E63009F0CFC3D70116968C91882335
:1008600009F4C9C360E0C5010E9443016C0161E065
:10087000C5010E9443018C0181EF92E00E94F10AC0
:100880008111B9C3F601C080D180D8011C9181EFDC
:1008900092E00E942501612F70E0D7011796ED913B
:1008A000FC911897C601099581EF92E00E9407011B
:1008B000A2C30F5F1F4F0431110509F0BBCF9BC3CB
:1008C000F601358430FE03C0BD89B13059F131FEE7
:1008D00003C0ED89E23031F1D60190962C9022FED2
:1008E00020C1BD89B93009F01CC1F601808D918D00
:1008F0005801AA0CBB1C892B09F462C08685882389
:1009000009F45EC086899789009709F459C00E944E
:10091000D412F701EA0DFB1D0184F285E02D178A40
:10092000168A4EC081E0D6011F968C931F971E96A3
:100930008C911E97882371F058968D919C915997B0
:10094000892B41F056968D919C915797009711F005
:100950000E94D412F6011686178A168A148E158EF6
:10096000168E178E118E108E118A108A128A138A93
:10097000148A158AFE89F23008F084C023E02E8B99
:1009800006C0FE89F23008F081C031E03E8B411490
:10099000510461047104F9F4F801EE0FFF1FEE0D2C
:1009A000FF1D0184F285E02D81E086871786888D02
:1009B000998D918B808B428A538A648A758A66C02E
:1009C000F701EA0DFB1D0184F285E02D8685882361
:1009D000C1F291E09E8BC7010E94740ADC0152961D
:1009E000ED91FC915397BE89EB0FF11D20812A8F69
:1009F000C22ED12CC114D104C9F1C60101960E94A6
:100A00003C121C014C01A12CB12CC7010E94740A9C
:100A10006E890E9443018A0D9B1DDC018C91F401BB
:100A200081934F01FFEFAF1ABF0AAC14BD046CF302
:100A3000F101EC0DFD1D1082F801EE0FFF1FEE0D10
:100A4000FF1D0184F285E02DD18EC08E848D958DA1
:100A5000A68DB78D2A8D820F911DA11DB11D848F8A
:100A6000958FA68FB78F378A268A0CC0F801EE0FB4
:100A7000FF1FEE0DFF1D0184F285E02D118E108EFB
:100A8000178A168A3D89393009F086CF81EF92E0C6
:100A90000E94F10A8111AFC2000F111F6701C00E41
:100AA000D11ED6011996ED91FC911A97858580FF8C
:100AB00010C0BD89B13069F481EF92E00E94250138
:100AC000F60181859285DC011596ED91FC911697D2
:100AD00013C081FF14C0BD89B23089F481EF92E068
:100AE0000E942501F701E00FF11F81859285DC014D
:100AF0001796ED91FC9118970E960995D5CE80A189
:100B000082FF79C281EF92E00E942501F701E00F98
:100B1000F11F81859285DC019196ED91FC91929770
:100B2000EBCF81EF92E00E94F10A811164C232FEA4
:100B300013C0BD89B33081F481EF92E00E9425019A
:100B4000000F111FF701E00FF11F0184F285E02D66
:100B50000184F285E02D14C033FE14C0ED89E53028
:100B600089F481EF92E00E942501000F111FF70127
:100B7000E00FF11F0184F285E02D0384F485E02D60
:100B8000099592CE21FE14C0FD89F83089F481EFD9
:100B900092E00E942501000F111FF701E00FF11FE5
:100BA0000184F285E02D05A0F6A1E02DC401A5CFBA
:100BB00020FE8CC02D89273009F088C02DB63EB6A6
:100BC000C7010E94740ADC015296ED91FC91539783
:100BD000C180D12CC6010196EDB7FEB7E81BF90B19
:100BE0000FB6F894FEBF0FBEEDBF2DB73EB72F5F17
:100BF0003F4F29014901A12CB12CAC14BD048CF448
:100C0000C7010E94740A61E00E9443018A0D9B1D86
:100C1000DC018C91F40181934F01FFEFAF1ABF0A01
:100C2000ECCFF201EC0DFD1D1082C7010E94740A89
:100C3000DC015296ED91FC915397C280D12CC601F4
:100C40000196EDB7FEB7E81BF90B0FB6F894FEBF9F
:100C50000FBEEDBF2DB73EB72F5F3F4F39014901A2
:100C6000A12CB12CAC14BD048CF4C7010E94740AF1
:100C700062E00E9443018A0D9B1DDC018C91F4010E
:100C800081934F01FFEFAF1ABF0AECCFF301EC0DD8
:100C9000FD1D108281EF92E00E942501000F111FBF
:100CA000F701E00FF11F0184F285E02D03A0F4A10C
:100CB000E02DB301C201099581EF92E00E94070186
:100CC0000FB6F8943EBE0FBE2DBE95C18D898A50D9
:100CD000823008F090C162E0C5010E944301D50155
:100CE0001F962C90312CBCE02B1631040CF083C1E4
:100CF000FC01808091801A8219821C821B8243E051
:100D0000C42ED12CC214D3040CF0CBC0C60103975F
:100D1000940102C0359527958A95E2F720FF93C08C
:100D20008DB79EB79B8F8A8FCC8EC7010E94740AA5
:100D3000DC015296ED91FC915397EC0DFD1D408026
:100D4000512CC2010196EDB7FEB7E81BF90B0FB6A7
:100D5000F894FEBF0FBEEDBF2DB73EB72F5F3F4FDC
:100D600059013F8B2E8B398F288F612C712C641485
:100D700075049CF4C7010E94740A6C8D0E944301A3
:100D8000860D971DDC018C91E88DF98D8193F98F8B
:100D9000E88FFFEF6F1A7F0AEACFF501E40DF51D2A
:100DA000108289819A8108970CF045C085E090E017
:100DB0000E943C123C01F50101900020E9F73197B7
:100DC0009F012A193B095901C90101960E943C1251
:100DD000D30114969C938E93139720E030E0F30197
:100DE000838194812A153B0564F4AE89BF894D91B6
:100DF000BF8BAE8BFC01E20FF31F40832F5F3F4F91
:100E0000EECFFC01EA0DFB1D108221E0F3012083EF
:100E100089819A819C012F5F3F4F3A832983FC018E
:100E20003296EE0FFF1F81E090E08C0F9D1FE80FC0
:100E3000F91F71826082AA8DBB8D0FB6F894BEBF78
:100E40000FBEADBF2AC0C7010E94740A6C2D0E945C
:100E50004301A980BA80B8E0AB16B104F4F4FC01F8
:100E60006080718085E090E00E943C12DC01129667
:100E70007C926E9211971C9295012F5F3F4F3A839F
:100E80002983F5013296EE0FFF1F21E030E02C0F91
:100E90003D1FE20FF31F918380833FEFC31AD30AF4
:100EA00031CF000F111FF701E00FF11F0184F28510
:100EB000E02D80A183FF56C09D899A3009F052C071
:100EC0004DB65EB6C7010E94740ADC015296ED91E0
:100ED000FC915397C180D12CC6010196EDB7FEB7A6
:100EE000E81BF90B0FB6F894FEBF0FBEEDBF2DB790
:100EF0003EB72F5F3F4F49013901A12CB12CAC14F3
:100F0000BD048CF4C7010E94740A61E00E94430191
:100F10008A0D9B1DDC018C91F30181933F01FFEF52
:100F2000AF1ABF0AECCFF401EC0DFD1D108281EF6A
:100F300092E00E942501F701E00FF11F0184F28584
:100F4000E02D07A0F0A5E02DB401CE010196099592
:100F500081EF92E00E9407010FB6F8945EBE0FBECB
:100F60004DBE26C084FF24C02D892B3009F5C70152
:100F70000E94740A61E00E944301DC018D909D9003
:100F8000AD90BC9081EF92E00E942501F701E00F47
:100F9000F11F0184F285E02D01A4F2A5E02DB50139
:100FA000A401CE010196099581EF92E00E9407010C
:100FB0006E01B5E0CB0ED11CE12CF12C89819A8118
:100FC000E816F906C4F4F601019111916F010115BB
:100FD000110569F0D8018C91882331F013968D9119
:100FE0009C9114970E94D412C8010E94D412BFEFA2
:100FF000EB1AFB0AE3CF2D8D3E8D0FB6F8943EBF62
:101000000FBE2DBF6E960FB6F894DEBF0FBECDBFDC
:10101000DF91CF911F910F91FF90EF90DF90CF90D4
:10102000BF90AF909F908F907F906F905F904F9008
:101030003F902F9008958F929F92AF92BF92CF9240
:10104000DF92EF92FF92CF93DF93EC0180910F0339
:10105000882359F08091510290915202DC01ED9168
:10106000FC910190F081E02D09958E81811126C0BF
:101070000E94290B4B015C0182E0C82ED12CE12C8F
:10108000F12C0E94290BDC01CB0188199909AA09CE
:10109000BB09883E9340A105B10598F3B1E0CB1A96
:1010A000D108E108F10828EE820E23E0921EA11C6F
:1010B000B11CC114D104E104F10419F7DF91CF91FF
:1010C000FF90EF90DF90CF90BF90AF909F908F9068
:1010D0000895FC01118612861386148615861686DD
:1010E0001786148A10861082118210924C02178281
:1010F000128213821482158216820895CF92DF9293
:10110000EF92FF920F931F93CF93DF93FB01019018
:101110000020E9F73197EF01C61BD70BD9F16B011E
:101120007C0184E090E00E943C128C01FC0113825F
:101130009E01CF3FD10519F014F02FEF30E0F801F8
:101140002083D282C18284E090E00E943C12FC01A4
:10115000138282E0808397012D5F3F4F328321838A
:101160001F930F93FF93EF938F93C1E0CF931F9241
:1011700089E28F9381EF92E09F938F930E94A40B5B
:10118000F701C0838DB79EB70A960FB6F8949EBF3D
:101190000FBE8DBFDF91CF911F910F91FF90EF9008
:1011A000DF90CF900895CF92DF92EF92FF920F934E
:1011B0001F93CF93DF936C017A018B01C0E0D0E0E5
:1011C000CE15DF0581F0D8016D918D01D601ED912D
:1011D000FC910190F081E02DC6010995892B11F059
:1011E0002196EECF7E01C701DF91CF911F910F9124
:1011F000FF90EF90DF90CF900895089580E090E009
:101200000895FC01538D448D252F30E0842F90E00C
:10121000821B930B541710F0CF96089501970895F1
:10122000FC01918D828D981761F0828DDF01A80FEE
:10123000B11D5D968C91928D9F5F9F73928F90E010
:1012400008958FEF9FEF0895FC01918D828D98177F
:1012500031F0828DE80FF11D858D90E008958FEFBC
:101260009FEF0895FC01918D228D892F90E0805C85
:101270009F4F821B91098F739927089584E592E00F
:101280000E94320921E0892B09F420E0822F089581
:10129000FC01848DDF01A80FB11DA35ABF4F2C9113
:1012A000848D90E001968F739927848FA689B789E2
:1012B0002C93A089B1898C91837080648C93938DD9
:1012C000848D981306C00288F389E02D80818F7D7C
:1012D00080830895EF92FF920F931F93CF93DF9334
:1012E000EC0181E0888F9B8D8C8D981305C0E88977
:1012F000F989808185FD26C0F62E0B8D10E00F5FE9
:101300001F4F0F731127E02E8C8DE8120CC00FB603
:1013100007FCFACFE889F989808185FFF5CFCE01F6
:101320000E944809F1CF8B8DFE01E80FF11DE35AB1
:10133000FF4FF0829FB7F8940B8FEA89FB89808179
:1013400080620AC09FB7F894EE89FF896083E889BC
:10135000F98980818370806480839FBF81E090E001
:10136000DF91CF911F910F91FF90EF900895CF9350
:10137000DF93EC01888D8823C9F0EA89FB8980819D
:1013800085FD05C0A889B9898C9186FD0FC00FB66F
:1013900007FCF5CF808185FFF2CFA889B9898C91B0
:1013A00085FFEDCFCE010E944809E7CFDF91CF91B5
:1013B00008950E945D13CF93DF9380914D028111B8
:1013C00032C08091510290915202DC01ED91FC916A
:1013D0000084F185E02D0995892B29F18091510236
:1013E00090915202DC01ED91FC910284F385E02D95
:1013F0000995EC01BC01772781EF92E00E945C0126
:101400008091F6028823E9F281EF92E00E942501A3
:10141000E0910A03F0910B038C2F099581EF92E084
:101420000E940701CECFDF91CF9108950E943E091F
:1014300081110C94DB0908951F920F920FB60F9241
:1014400011242F933F934F935F936F937F938F93C9
:101450009F93AF93BF93EF93FF9384E592E00E9435
:101460004809FF91EF91BF91AF919F918F917F912B
:101470006F915F914F913F912F910F900FBE0F9001
:101480001F9018951F920F920FB60F9211242F9351
:101490008F939F93EF93FF93E0916402F091650225
:1014A0008081E0916A02F0916B0282FD12C090810E
:1014B00080916D028F5F8F7320916E02821751F0C1
:1014C000E0916D02F0E0EC5AFD4F958F80936D0234
:1014D00001C08081FF91EF919F918F912F910F908B
:1014E0000FBE0F901F90189580914E02882329F00F
:1014F00080914F0290915002089581EF92E00895FB
:101500006F927F928F929F92AF92BF92CF92DF9213
:10151000EF92FF920F931F93CF93DF93EC010E9402
:10152000740ADC011B962C911B97213009F04AC0EC
:101530005296ED91FC915397608000E010E0712C81
:101540004E01BFE48B0E911C7E01E9E4EE0EF11C0E
:101550006E01FDE4CF0ED11C5E0189E0A80EB11C26
:10156000061517057CF5CE010E94740A60E00E9402
:101570004301800F911FDC018C91F40120813181A6
:1015800020343105E1F0D701ED91FC9111979F01D5
:101590002F5F3F4F11963C932E938083F4018081FF
:1015A00091810196918380832D913C91D6018D91FB
:1015B0009C912817390719F4F701B182A0820F5FB7
:1015C0001F4FCECFDF91CF911F910F91FF90EF90E2
:1015D000DF90CF90BF90AF909F908F907F906F9053
:1015E000089580915302882321F090914C0281E06C
:1015F00089270895CF93DF93EC010E94740A3B8101
:10160000FC012185321322C083858F3FB1F48A818A
:101610008823E1F081EF92E00E94F10A811116C067
:1016200081EF92E00E942501EC81FD81099581EF17
:1016300092E0DF91CF910C940701E881F98102805B
:10164000F381E02DCE01DF91CF910994DF91CF910D
:1016500008953FB7F8948091210490912204A091BD
:101660002304B091240426B5A89B05C02F3F19F090
:101670000196A11DB11D3FBFBA2FA92F982F882712
:10168000820F911DA11DB11DBC01CD0142E0660F6D
:10169000771F881F991F4A95D1F708952FB7F8949F
:1016A00060911D0470911E0480911F04909120048C
:1016B0002FBF08951F920F920FB60F9211242F93F0
:1016C0003F938F939F93AF93BF9380911D0490910D
:1016D0001E04A0911F04B091200430911C0423E04B
:1016E000230F2D3720F40196A11DB11D05C026E85A
:1016F000230F0296A11DB11D20931C0480931D048D
:1017000090931E04A0931F04B093200480912104A1
:1017100090912204A0912304B09124040196A11D6C
:10172000B11D8093210490932204A0932304B093CD
:101730002404BF91AF919F918F913F912F910F9072
:101740000FBE0F901F9018955F926F927F928F92AD
:101750009F92AF92BF92CF92DF92EF92FF920F9340
:101760001F93CF93DF93CDB7DEB76B970FB6F89487
:10177000DEBF0FBECDBF0DA51EA55FA4CAA80E94E7
:101780004E0B552009F473C020912504222309F43F
:101790006EC08090260490902704A0902804B090FA
:1017A000290481149104A104B10409F460C0DC018E
:1017B000CB0188199909AA09BB090196A11DB11D80
:1017C000883C9105A105B10508F051C080915302F4
:1017D00028EC820E911CA11CB11C882309F43FC087
:1017E000CE0101967C010E946908F0925002E092BD
:1017F0004F0281E080934E020E944E0B68157905DE
:101800008A059B0508F4BBC088858111B8C0109279
:10181000500210924F0210924E0229C0F8018781A7
:10182000882329F18091510290915202DC01ED91BF
:10183000FC910084F185E02D0995892B81F0809140
:10184000510290915202DC01ED91FC910284F385EA
:10185000E02D0995BC0181EF92E00E945C010E949D
:101860004E0B681579058A059B05E0F2D7CF81E01C
:10187000809325047E01B3E3EB0EF11C6FEFC801EA
:101880000E941B0862E1C8010E941B08652DC80167
:101890000E941B080E94451120E130E040E050E02A
:1018A0000E949C11962F9095E0E19E9FC00111240B
:1018B0006F70682BC8010E941B0869A9C8010E94AB
:1018C0001B086C2DC8010E941B086C2D6095C80177
:1018D0000E941B08812C912CD12C8C149D04CCF5DA
:1018E0003701F2E06F0E711CD701ED90FC90F7010B
:1018F0006081C8010E941B08D7016C916095C801E6
:101900000E941B08A12CB12CF701808190E0A81641
:10191000B9066CF40180F281E02DEA0DFB1D6081B7
:10192000C8010E941B08FFEFAF1ABF0AEDCFE114F8
:10193000F10451F08381882321F0818192810E94FA
:10194000D412C7010E94D412BFEF8B1A9B0A7301F5
:10195000C4CF60E0C8010E941B08552071F10E94AD
:101960004E0BDC01CB010196A11DB11D8093260415
:1019700090932704A0932804B09329041EC080915B
:10198000510290915202DC01ED91FC910084F185AD
:10199000E02D0995892B09F42FCF80915102909168
:1019A0005202DC01ED91FC910284F385E02D099552
:1019B000BC01C7010E945C011FCF6B960FB6F89463
:1019C000DEBF0FBECDBFDF91CF911F910F91FF9072
:1019D000EF90DF90CF90BF90AF909F908F907F90CF
:1019E0006F905F900895EF92FF920F931F93CF93A4
:1019F000DF93FB0101900020E9F73197EF01C61B4F
:101A0000D70B51F18B017C0184E090E00E943C12E5
:101A1000FC0113829E01CF3FD10519F014F02FEF86
:101A200030E0208312830183FF93EF9381E08F9353
:101A3000F70180818F931F9282818F9381EF92E0D3
:101A40009F938F930E94A40B8DB79EB708960FB6F5
:101A5000F8949EBF0FBE8DBFDF91CF911F910F9164
:101A6000FF90EF900895EF92FF920F931F93CF9303
:101A7000DF93CDB7DEB7EDB6FEB6FC0101900020D6
:101A8000E9F79F01281B390B2E5F3F4F4DB75EB71B
:101A9000421B530B0FB6F8945EBF0FBE4DBF0DB780
:101AA0001EB70F5F1F4FEDB7FEB71182BC01C80113
:101AB0000E946F1366E671E0C8010E946F13B801BF
:101AC00086EA93E00E94F30C0FB6F894FEBE0FBEB8
:101AD000EDBEDF91CF911F910F91FF90EF90089590
:101AE000CF93DF93CDB7DEB76B970FB6F894DEBF19
:101AF0000FBECDBF789484B5826084BD84B581600B
:101B000084BD85B5826085BD85B5816085BD8091C8
:101B10006E00816080936E00109281008091810040
:101B20008260809381008091810081608093810038
:101B3000809180008160809380008091B1008460FA
:101B40008093B1008091B00081608093B00080915B
:101B50007A00846080937A0080917A00826080931A
:101B60007A0080917A00816080937A0080917A0077
:101B7000806880937A001092C10080910F038111D8
:101B800081C084E592E09093520280935102E091EB
:101B90006402F091650292E09083E0916002F0911E
:101BA00061021082E0916202F091630280E1808321
:101BB00010926C02E0916802F091690286E08083E5
:101BC000E0916602F0916702808180618083E091FC
:101BD0006602F0916702808188608083E0916602EE
:101BE000F0916702808180688083E0916602F091C5
:101BF000670280818F7D808310924D0281E0809307
:101C00000F031F929F931F921F9281EF92E09F9369
:101C10008F930E94A40B0F900F900F900F900F9036
:101C20000F9080910C0390910D03892B59F100E0E6
:101C300010E020910E0330E080910C0390910D0391
:101C400002171307DCF49801220F331FFC01E20F87
:101C5000F31FE080F180D7018C9181110CC01196A7
:101C60006D917C911297C7010E947E08F7018181D6
:101C700092810E94D4120F5F1F4FDBCF0E94D412BB
:101C800010920E038091FE0381608093FE0386E92B
:101C900090E09093F7038093F603809111042AE972
:101CA00030E030931904209318048A608093110463
:101CB00082E990E0909317048093160481E080936A
:101CC00075038EE990E090937703809376033EEF5F
:101CD000232E33E0332E44EFA42E43E0B42E51EFF5
:101CE000C52E52E0D52E61EF862E63E0962E9E0122
:101CF0002F5F3F4F79018091FE038823B9F0A8E759
:101D0000B3E0FD0181919191815F934029F183E0DE
:101D1000E03AF807B9F780E090E02D913D91232B50
:101D2000A1F0019684319105C1F73EC0EFE6F3E0E2
:101D300081859285815F934011F4128611863296D7
:101D4000B3E0E739FB07A1F707C0880F991FFC0133
:101D5000E159FC4F9286818684E090E00E943C121B
:101D60008C01FC01138221E020833282218284E0F5
:101D700090E00E943C12FC01138232E03083B28278
:101D8000A1821F930F93FF938F933F9389E08F93CB
:101D90001F9299E29F93DF92CF920E94A40B0FB6FD
:101DA000F894DEBF0FBECDBF0E944E0B20915302B0
:101DB0002B013C01E0E64E0EEAEE5E1E611C711C3A
:101DC0002223B1F1C7010E946908F0925002E0920B
:101DD0004F02F1E0F0934E020E944E0B6415750520
:101DE00086059705B0F18885811133C029C080919F
:101DF000F802882359F18091510290915202DC013E
:101E0000ED91FC910084F185E02D0995892B81F0FD
:101E10008091510290915202DC01ED91FC9102847B
:101E2000F385E02D0995BC0181EF92E00E945C01F1
:101E30000E944E0B6415750586059705E0F2D7CF15
:101E40001092500210924F0210924E020E94160AF7
:101E500052CF8091510290915202DC01ED91FC91A0
:101E60000084F185E02D0995892B09F4B5CF809187
:101E7000510290915202DC01ED91FC910284F385B4
:101E8000E02D0995BC01C7010E945C01A5CF80919E
:101E9000FF03882361F08091090490910A04892B43
:101EA00031F080910704909108040C94D4120895A5
:101EB000CF93DF93E8E7F3E080E090E02191319168
:101EC000215F334041F4880F991FFC01E159FC4F19
:101ED0001286118604C001968431910579F70E941B
:101EE000470F80913C04882301F180913E0490913A
:101EF0003F04892BD1F0C0E0D0E020913C0430E0D9
:101F000080913E0490913F04C217D30764F49E0170
:101F1000220F331FFC01E20FF31F808191810E9489
:101F2000D4122196EACF0E94D41280913604909167
:101F30003704009721F0DF91CF910C94D412DF91F8
:101F4000CF910895CF93109257021092560288EEC7
:101F500093E0A0E0B0E08093580290935902A093E0
:101F60005A02B0935B028EE091E090935502809309
:101F7000540285EC90E0909361028093600284ECBF
:101F800090E0909363028093620280EC90E09093E3
:101F900065028093640281EC90E0909367028093E5
:101FA000660282EC90E0909369028093680286EC6E
:101FB00090E090936B0280936A0210926D021092EF
:101FC0006E0210926F021092700281EF92E00E94F6
:101FD000690810922B0410922D0410922C04109278
:101FE0002F0410922E041092300481E080932A0472
:101FF0001092330410923404109235041092370476
:1020000010923604109239041092380410923B0456
:1020100010923A0410923C0410923F0410923E0435
:1020200089E28093720310927103E0916E03EF32A4
:1020300069F081E08E0F80936E03F0E0EE0FFF1FDA
:10204000E05FFC4F8FE693E09183808388E291E02C
:102050009093700380936F0310927503E8E7F3E0A9
:1020600080EA93E0119211928E179F07D9F786E2CA
:102070008093A80392E09093A60391E09093A70326
:102080008093A3031092A203E0916E03EF3269F0F4
:1020900081E08E0F80936E03F0E0EE0FFF1FE05F94
:1020A000FC4F80EA93E09183808380E391E09093FA
:1020B000A1038093A00389EA93E09093EA038093BD
:1020C000E9039093EC038093EB0389EE93E0909304
:1020D000EE038093ED031092F0031092EF03109241
:1020E000FF03109200041092020410920104109257
:1020F0000304109204041092050410920604109236
:1021000008041092070410920A0410920904109215
:102110000D0410920E0410920F04109210041092ED
:10212000110480913104909132040196909332040D
:10213000809331048093F4039093F5031092FE038F
:102140001092F3031092F20320E030E0392F282B95
:1021500030930C0420930B0480910F03811143C032
:1021600081E490E00E943C129093F3038093F20389
:10217000A7E0B2E080E090E02D91E091F203F091D1
:10218000F303E80FF91F2083019680349105A1F72E
:10219000E091F203F091F303E05CFF4F1082C091F5
:1021A0000E03C431E1F0C11108C088E290E00E9442
:1021B0003C1290930D0380930C0390910C0380913B
:1021C0000D0321E02C0F20930E03E92FF82FEC0FC5
:1021D000F11DEC0FF11D81EF93E09183808310924C
:1021E000F103CF91089567E072E081EF93E0CF9122
:1021F0000C947E088F929F92AF92BF92CF92DF9203
:10220000EF92FF92CF93DF93EC01688179818A810D
:102210009B81611571058105910521F464E279EDD9
:102220008BE597E02DE133EF41E050E00E949C11F7
:1022300049015A019B01AC01A7EAB1E40E94BB111C
:102240006B017C01ACEEB4EFA50194010E94C911B1
:10225000DC01CB018C0D9D1DAE1DBF1DB7FF03C062
:102260000197A109B04888839983AA83BB83BC01E5
:10227000CD019F77DF91CF91FF90EF90DF90CF90CE
:10228000BF90AF909F908F9008958F929F92AF9242
:10229000BF92CF92DF92EF92FF9260910001709116
:1022A0000101809102019091030161157105810581
:1022B000910521F464E279ED8BE597E02DE133EFB0
:1022C00041E050E00E949C1149015A019B01AC0180
:1022D000A7EAB1E40E94BB116B017C01ACEEB4EF44
:1022E000A50194010E94C911DC01CB018C0D9D1D3B
:1022F000AE1DBF1DB7FF03C00197A109B048809371
:10230000000190930101A0930201B0930301BC016D
:10231000CD019F77FF90EF90DF90CF90BF90AF906F
:102320009F908F90089560930001709301018093B6
:102330000201909303010895052E97FB1EF400946B
:102340000E94B31157FD07D00E94051207FC03D06D
:102350004EF40C94B31150954095309521953F4F14
:102360004F4F5F4F089590958095709561957F4F81
:102370008F4F9F4F08950E942712A59F900DB49FE5
:10238000900DA49F800D911D11240895B7FF0C940A
:10239000BB110E94BB11821B930B08952F923F9299
:1023A0004F925F926F927F928F929F92AF92BF9265
:1023B000CF92DF92EF92FF920F931F93CF93DF9311
:1023C000CDB7DEB7CA1BDB0B0FB6F894DEBF0FBE6E
:1023D000CDBF09942A88398848885F846E847D84BB
:1023E0008C849B84AA84B984C884DF80EE80FD80BD
:1023F0000C811B81AA81B981CE0FD11D0FB6F89433
:10240000DEBF0FBECDBFED010895A1E21A2EAA1BBB
:10241000BB1BFD010DC0AA1FBB1FEE1FFF1FA21794
:10242000B307E407F50720F0A21BB30BE40BF50B91
:10243000661F771F881F991F1A9469F7609570951A
:10244000809590959B01AC01BD01CF010895A29F9D
:10245000B001B39FC001A39F700D811D1124911D78
:10246000B29F700D811D1124911D0895EE0FFF1F65
:102470000590F491E02D09940F931F93CF93DF9370
:102480008230910510F482E090E0E0914804F091F0
:10249000490420E030E0A0E0B0E0309719F140813D
:1024A00051810281138148175907C8F08417950795
:1024B00069F4109731F012960C93129713961C93AF
:1024C00027C0009348041093490422C02115310508
:1024D00019F04217530718F49A01BD01EF01DF010B
:1024E000F801DBCF21153105F9F0281B390B243019
:1024F000310580F48A819B816115710521F0FB0112
:102500009383828304C09093490480934804FE011E
:10251000329644C0FE01E20FF31F81939193225043
:102520003109398328833AC0209146043091470409
:10253000232B41F420910601309107013093470489
:1025400020934604209104013091050121153105A5
:1025500041F42DB73EB74091080150910901241B69
:10256000350BE0914604F0914704E217F307A0F41D
:102570002E1B3F0B2817390778F0AC014E5F5F4FD9
:102580002417350748F04E0F5F1F509347044093C0
:1025900046048193919302C0E0E0F0E0CF01DF9127
:1025A000CF911F910F910895CF93DF93009709F476
:1025B00081C0FC01329713821282A0914804B0912D
:1025C0004904109781F420813181820F931F20915B
:1025D0004604309147042817390751F5F093470412
:1025E000E093460467C0ED0120E030E0CE17DF073E
:1025F00040F44A815B819E0141155105F1F0EA01E9
:10260000F5CFD383C28340815181840F951FC817B2
:10261000D90759F488819981840F951F0296918377
:1026200080838A819B81938382832115310529F4DC
:10263000F0934904E09348043DC0E901FB83EA8339
:1026400049915991C40FD51FEC17FD0761F48081A2
:102650009181840F951F0296E90199838883828175
:1026600093819B838A83E0E0F0E012968D919C91A8
:102670001397009719F0FD01DC01F7CF8D919C9124
:1026800011979D012E5F3F4F820F931F20914604AB
:10269000309147042817390769F4309729F41092CC
:1026A00049041092480402C013821282B093470476
:1026B000A0934604DF91CF91089581E090E0F894D3
:1026C0000C943B16FB01DC0104C08D910190801934
:1026D00021F441505040C8F7881B990B0895FB0125
:1026E000DC010D900020E9F7119701900D92002078
:1026F000E1F70895AEE0B0E0E0E8F3E10C94DC111E
:102700000D891E898F89988D26E02C831A83098371
:1027100097FF02C080E090E801979E838D83AE0111
:10272000455E5F4F698D7A8DCE0101960E94AA1396
:102730004D815E8157FD0AC02F81388542175307AE
:102740000CF49A01F801E20FF31F10822E96E4E0D8
:102750000C94F811ABE0B0E0E0EBF3E10C94CE1197
:102760006C017B018A01FC0117821682838181FF43
:10277000CCC1CE0101963C01F6019381F70193FD96
:10278000859193FF81917F01882309F4BAC1853235
:1027900039F493FD859193FF81917F01853229F46E
:1027A000B60190E00E94A115E7CF912C212C312C8D
:1027B000FFE1F315D8F08B3279F038F4803279F0FC
:1027C0008332A1F4232D20611DC08D3261F080334E
:1027D00069F4232D216016C0832D8260382EE32DED
:1027E000E4603E2E2AC0F32DF8601DC037FC2DC0DA
:1027F00020ED280F2A3040F08E32B9F436FC81C12A
:10280000232D2064322E19C036FE06C08AE0989E21
:10281000200D1124922E11C0EAE02E9E200D1124CD
:10282000222EF32DF0623F2E08C08C3621F4832D2A
:102830008068382E02C0883641F4F70193FD8591F7
:1028400093FF81917F018111B3CF982F9F7D955484
:10285000933028F40C5F1F4F9FE399830DC083369C
:1028600031F0833771F0833509F059C021C0F80188
:10287000808189830E5F1F4F88248394912C53019C
:1028800013C02801F2E04F0E511CF801A080B18066
:1028900036FE03C0692D70E002C06FEF7FEFC50107
:1028A0000E9496154C018201F32DFF773F2E16C032
:1028B000280122E0420E511CF801A080B18036FEB2
:1028C00003C0692D70E002C06FEF7FEFC5010E9469
:1028D0008B154C01F32DF0683F2E820133FC1BC099
:1028E000822D90E088169906B0F4B60180E290E05F
:1028F0000E94A1152A94F4CFF50137FC859137FE8B
:1029000081915F01B60190E00E94A11521102A94E7
:1029100021E0821A91088114910471F7E8C084368D
:1029200011F0893641F5F80137FE07C060817181E9
:10293000828193810C5F1F4F08C060817181072ED7
:10294000000C880B990B0E5F1F4FF32DFF763F2E67
:1029500097FF09C090958095709561957F4F8F4F37
:102960009F4FF0683F2E2AE030E0A3010E94DD1562
:10297000882E861845C0853731F4232D2F7EB22E40
:102980002AE030E025C0932D997FB92E8F36C1F013
:1029900018F4883579F0B5C0803719F0883721F000
:1029A000B0C0E92FE061BE2EB4FE0DC0FB2DF46077
:1029B000BF2E09C034FE0AC0292F2660B22E06C0E1
:1029C00028E030E005C020E130E002C020E132E044
:1029D000F801B7FE07C060817181828193810C5F2D
:1029E0001F4F06C06081718180E090E00E5F1F4F35
:1029F000A3010E94DD15882E8618FB2DFF773F2E40
:102A000036FE0DC0232D2E7FA22E891458F434FEDD
:102A10000BC032FC09C0832D8E7EA82E05C0B82CB9
:102A2000A32C03C0B82C01C0B92CA4FE0FC0FE011A
:102A3000E80DF11D8081803321F49A2D997EA92E15
:102A400009C0A2FE06C0B394B39404C08A2D867850
:102A500009F0B394A3FC11C0A0FE06C0B21488F420
:102A6000280C922C9B180EC0B21460F4B60180E2C0
:102A700090E00E94A115B394F7CFB21418F42B186C
:102A800002C0982C212CA4FE10C0B60180E390E077
:102A90000E94A115A2FE17C0A1FC03C088E790E028
:102AA00002C088E590E0B6010CC08A2D867859F006
:102AB000A1FE02C08BE201C080E2A7FC8DE2B6015C
:102AC00090E00E94A115891438F4B60180E390E0EB
:102AD0000E94A1159A94F7CF8A94F301E80DF11D95
:102AE0008081B60190E00E94A1158110F5CF2220CF
:102AF00009F442CEB60180E290E00E94A1152A942A
:102B0000F6CFF6018681978102C08FEF9FEF2B965B
:102B1000E2E10C94EA11FC01059061507040011053
:102B2000D8F7809590958E0F9F1F0895FC016150F6
:102B3000704001900110D8F7809590958E0F9F1FDF
:102B400008950F931F93CF93DF93FB01238121FD02
:102B500003C08FEF9FEF2CC022FF16C04681578124
:102B6000248135814217530744F4A081B1819D012E
:102B70002F5F3F4F318320838C93268137812F5FD6
:102B80003F4F3783268314C08B01EC01FB01008487
:102B9000F185E02D0995892BE1F6D80116968D91E6
:102BA0009C911797019617969C938E931697CE013A
:102BB000DF91CF911F910F910895FA01AA27283034
:102BC00051F1203181F1E8946F936E7F6E5F7F4FFA
:102BD0008F4F9F4FAF4FB1E03ED0B4E03CD0670F76
:102BE000781F891F9A1FA11D680F791F8A1F911DC9
:102BF000A11D6A0F711D811D911DA11D20D009F419
:102C000068943F912AE0269F11243019305D31935A
:102C1000DEF6CF010895462F4770405D4193B3E043
:102C20000FD0C9F7F6CF462F4F70405D4A3318F0EA
:102C3000495D31FD4052419302D0A9F7EACFB4E09B
:102C4000A6959795879577956795BA95C9F7009753
:102C50006105710508959B01AC010A2E06945795F4
:102C6000479537952795BA95C9F7620F731F841F4B
:102C7000951FA01D089510E0C5E3D0E004C0FE013B
:102C80000E9436122196C633D107C9F7F894FFCFB8
:102C90000100000000004A048000000000006A09F2
:102CA000D3080109B70932091009240900000000FE
:102CB000FA0AFD0800000000FA0AB1030000000053
:102CC000FA0A800A526573706F6E736520657272BE
:102CD0006F720053756363657373006F6E4A736F31
:102CE0006E5265706C7900526571756573742069F8
:102CF000643A002564000D0A00496E7465726E65C1
:102D000074206572726F723A0052455155455354A2
:102D10005F43414E5F4E4F545F42455F464F554EB5
:102D200044004E4F545F434F4E4E45435445445F1D
:102D3000544F5F4E4554574F524B0055524C5F49CC
:102D4000535F4E4F545F464F554E4400414C5245E1
:102D50004144595F455845435554494E475F524594
:102D600051554553540055524C5F49535F57524F8C
:102D70004E470041726520796F75206F6B3F005997
:102D800075702C2049276D206665656C696E67201B
:102D90006772656174210068747470733A2F2F7ABA
:102DA000756D6F2D636F6E74726F6C6C65722E68CB
:102DB00065726F6B756170702E636F6D2F617069D6
:102DC0002F63757272656E74436F6F7264733F7AAE
:082DD000756D6F49643D31008F
:00000001FF
